{
  "contractName": "Election",
  "abi": [
    {
      "constant": true,
      "inputs": [],
      "name": "candidatesCount",
      "outputs": [
        {
          "name": "",
          "type": "uint256"
        }
      ],
      "payable": false,
      "stateMutability": "view",
      "type": "function",
      "signature": "0x2d35a8a2"
    },
    {
      "constant": true,
      "inputs": [],
      "name": "chairperson",
      "outputs": [
        {
          "name": "",
          "type": "address"
        }
      ],
      "payable": false,
      "stateMutability": "view",
      "type": "function",
      "signature": "0x2e4176cf"
    },
    {
      "constant": true,
      "inputs": [
        {
          "name": "",
          "type": "uint256"
        }
      ],
      "name": "candidates",
      "outputs": [
        {
          "name": "id",
          "type": "uint256"
        },
        {
          "name": "name",
          "type": "string"
        },
        {
          "name": "voteCount",
          "type": "uint256"
        }
      ],
      "payable": false,
      "stateMutability": "view",
      "type": "function",
      "signature": "0x3477ee2e"
    },
    {
      "constant": true,
      "inputs": [
        {
          "name": "",
          "type": "address"
        }
      ],
      "name": "voters",
      "outputs": [
        {
          "name": "weight",
          "type": "uint256"
        },
        {
          "name": "voted",
          "type": "bool"
        }
      ],
      "payable": false,
      "stateMutability": "view",
      "type": "function",
      "signature": "0xa3ec138d"
    },
    {
      "inputs": [],
      "payable": false,
      "stateMutability": "nonpayable",
      "type": "constructor",
      "signature": "constructor"
    },
    {
      "anonymous": false,
      "inputs": [
        {
          "indexed": true,
          "name": "_candidateId",
          "type": "uint256"
        }
      ],
      "name": "votedEvent",
      "type": "event",
      "signature": "0xfff3c900d938d21d0990d786e819f29b8d05c1ef587b462b939609625b684b16"
    },
    {
      "anonymous": false,
      "inputs": [
        {
          "indexed": true,
          "name": "_voterId",
          "type": "address"
        }
      ],
      "name": "voterEvent",
      "type": "event",
      "signature": "0x9b7e73f1f09a9b862dc52f57ce02e5fb3648c6674f4aa6a6c633601de82aee38"
    },
    {
      "constant": false,
      "inputs": [
        {
          "name": "_candidateId",
          "type": "uint256"
        }
      ],
      "name": "vote",
      "outputs": [],
      "payable": false,
      "stateMutability": "nonpayable",
      "type": "function",
      "signature": "0x0121b93f"
    },
    {
      "constant": false,
      "inputs": [
        {
          "name": "_voterId",
          "type": "address"
        }
      ],
      "name": "giveVoteAccess",
      "outputs": [],
      "payable": false,
      "stateMutability": "nonpayable",
      "type": "function",
      "signature": "0x457820c3"
    }
  ],
  "bytecode": "0x608060405234801561001057600080fd5b5033600360006101000a81548173ffffffffffffffffffffffffffffffffffffffff021916908373ffffffffffffffffffffffffffffffffffffffff16021790555061009f6040805190810160405280600b81526020017f43616e6469646174652031000000000000000000000000000000000000000000815250610175640100000000026401000000009004565b6100ec6040805190810160405280600b81526020017f43616e6469646174652032000000000000000000000000000000000000000000815250610175640100000000026401000000009004565b604080519081016040528060018152602001600015158152506000803373ffffffffffffffffffffffffffffffffffffffff1673ffffffffffffffffffffffffffffffffffffffff1681526020019081526020016000206000820151816000015560208201518160010160006101000a81548160ff021916908315150217905550905050610297565b600260008154809291906001019190505550606060405190810160405280600254815260200182815260200160008152506001600060025481526020019081526020016000206000820151816000015560208201518160010190805190602001906101e19291906101f2565b506040820151816002015590505050565b828054600181600116156101000203166002900490600052602060002090601f016020900481019282601f1061023357805160ff1916838001178555610261565b82800160010185558215610261579182015b82811115610260578251825591602001919060010190610245565b5b50905061026e9190610272565b5090565b61029491905b80821115610290576000816000905550600101610278565b5090565b90565b61070f806102a66000396000f3fe608060405260043610610078576000357c0100000000000000000000000000000000000000000000000000000000900463ffffffff1680630121b93f1461007d5780632d35a8a2146100b85780632e4176cf146100e35780633477ee2e1461013a578063457820c3146101fc578063a3ec138d1461024d575b600080fd5b34801561008957600080fd5b506100b6600480360360208110156100a057600080fd5b81019080803590602001909291905050506102bd565b005b3480156100c457600080fd5b506100cd610435565b6040518082815260200191505060405180910390f35b3480156100ef57600080fd5b506100f861043b565b604051808273ffffffffffffffffffffffffffffffffffffffff1673ffffffffffffffffffffffffffffffffffffffff16815260200191505060405180910390f35b34801561014657600080fd5b506101736004803603602081101561015d57600080fd5b8101908080359060200190929190505050610461565b6040518084815260200180602001838152602001828103825284818151815260200191508051906020019080838360005b838110156101bf5780820151818401526020810190506101a4565b50505050905090810190601f1680156101ec5780820380516001836020036101000a031916815260200191505b5094505050505060405180910390f35b34801561020857600080fd5b5061024b6004803603602081101561021f57600080fd5b81019080803573ffffffffffffffffffffffffffffffffffffffff169060200190929190505050610523565b005b34801561025957600080fd5b5061029c6004803603602081101561027057600080fd5b81019080803573ffffffffffffffffffffffffffffffffffffffff1690602001909291905050506106b2565b60405180838152602001821515151581526020019250505060405180910390f35b60016000803373ffffffffffffffffffffffffffffffffffffffff1673ffffffffffffffffffffffffffffffffffffffff1681526020019081526020016000206000015414151561030d57600080fd5b6000803373ffffffffffffffffffffffffffffffffffffffff1673ffffffffffffffffffffffffffffffffffffffff16815260200190815260200160002060010160009054906101000a900460ff1615151561036857600080fd5b60008111801561037a57506002548111155b151561038557600080fd5b60016000803373ffffffffffffffffffffffffffffffffffffffff1673ffffffffffffffffffffffffffffffffffffffff16815260200190815260200160002060010160006101000a81548160ff0219169083151502179055506001600082815260200190815260200160002060020160008154809291906001019190505550807ffff3c900d938d21d0990d786e819f29b8d05c1ef587b462b939609625b684b1660405160405180910390a250565b60025481565b600360009054906101000a900473ffffffffffffffffffffffffffffffffffffffff1681565b6001602052806000526040600020600091509050806000015490806001018054600181600116156101000203166002900480601f0160208091040260200160405190810160405280929190818152602001828054600181600116156101000203166002900480156105135780601f106104e857610100808354040283529160200191610513565b820191906000526020600020905b8154815290600101906020018083116104f657829003601f168201915b5050505050908060020154905083565b600360009054906101000a900473ffffffffffffffffffffffffffffffffffffffff1673ffffffffffffffffffffffffffffffffffffffff163373ffffffffffffffffffffffffffffffffffffffff161415156105e8576040517f08c379a000000000000000000000000000000000000000000000000000000000815260040180806020018281038252601b8152602001807f4f6e6c792061646d696e2063616e20676976652061636365737373000000000081525060200191505060405180910390fd5b604080519081016040528060018152602001600015158152506000808373ffffffffffffffffffffffffffffffffffffffff1673ffffffffffffffffffffffffffffffffffffffff1681526020019081526020016000206000820151816000015560208201518160010160006101000a81548160ff0219169083151502179055509050508073ffffffffffffffffffffffffffffffffffffffff167f9b7e73f1f09a9b862dc52f57ce02e5fb3648c6674f4aa6a6c633601de82aee3860405160405180910390a250565b60006020528060005260406000206000915090508060000154908060010160009054906101000a900460ff1690508256fea165627a7a7230582057845929c91e695e2fa3769b660921fbdba9ba0f6bdc30a8f3f84258f040e0ba0029",
  "source": "pragma solidity >=0.4.20;\r\n\r\ncontract Election {\r\n    // Model a Candidate\r\n    struct Candidate {\r\n        uint id;\r\n        string name;\r\n        uint voteCount;\r\n    }\r\n\r\n    struct Voter {\r\n        uint weight;\r\n        bool voted;\r\n    }\r\n\r\n    // Store accounts that have voted\r\n    mapping(address => Voter) public voters;\r\n    // Store Candidates\r\n    // Fetch Candidate\r\n    mapping(uint => Candidate) public candidates;\r\n    // Store Candidates Count\r\n    uint public candidatesCount;\r\n    address public chairperson;\r\n\r\n    // voted event\r\n    event votedEvent (\r\n        uint indexed _candidateId\r\n    );\r\n\r\n     event voterEvent (\r\n        address indexed _voterId\r\n    );\r\n\r\n    constructor () public {\r\n        chairperson = msg.sender;\r\n        addCandidate(\"Candidate 1\");\r\n        addCandidate(\"Candidate 2\");\r\n        voters[msg.sender] = Voter(1, false);\r\n        \r\n    }\r\n    \r\n\r\n    function addCandidate (string memory _name) private {\r\n        candidatesCount ++;\r\n        candidates[candidatesCount] = Candidate(candidatesCount, _name, 0);\r\n    }\r\n\r\n\r\n    function vote (uint _candidateId) public {\r\n\r\n        require(voters[msg.sender].weight ==1);\r\n\r\n        // require that they haven't voted before\r\n        require(!voters[msg.sender].voted);\r\n\r\n        // require a valid candidate\r\n        require(_candidateId > 0 && _candidateId <= candidatesCount);\r\n\r\n        // record that voter has voted\r\n        voters[msg.sender].voted = true;\r\n\r\n        // update candidate vote Count\r\n        candidates[_candidateId].voteCount ++;\r\n\r\n        // trigger voted event\r\n        emit votedEvent(_candidateId);\r\n    }\r\n\r\n    function giveVoteAccess (address _voterId) public  {\r\n\r\n        require(msg.sender==chairperson, \"Only admin can give accesss\");\r\n        //require(!voters[_voterId].voted, \"Voter has already voted\");\r\n        //addCandidate(\"Candidate 3\");\r\n        // voters[0xd1F61F5522369767F938fd053D59eB28f07ceA97] = Voter(1, true);\r\n        voters[_voterId] = Voter(1, false);\r\n        emit voterEvent(_voterId);\r\n      \r\n\r\n\r\n    }\r\n}\r\n",
  "sourcePath": "E:/election/contracts/Election.sol",
  "compiler": {
    "name": "solc",
    "version": "0.5.0+commit.1d4f565a.Emscripten.clang"
  },
  "schemaVersion": "3.0.1",
  "updatedAt": "2023-01-04T08:51:43.739Z",
  "devdoc": {
    "methods": {}
  },
  "userdoc": {
    "methods": {}
  }
}